{
  "contractName": "Item",
  "abi": [
    {
      "inputs": [
        {
          "internalType": "contract ItemManager",
          "name": "_parentContract",
          "type": "address"
        },
        {
          "internalType": "uint256",
          "name": "_priceInWei",
          "type": "uint256"
        },
        {
          "internalType": "uint256",
          "name": "_index",
          "type": "uint256"
        }
      ],
      "stateMutability": "nonpayable",
      "type": "constructor"
    },
    {
      "stateMutability": "nonpayable",
      "type": "fallback"
    },
    {
      "inputs": [],
      "name": "index",
      "outputs": [
        {
          "internalType": "uint256",
          "name": "",
          "type": "uint256"
        }
      ],
      "stateMutability": "view",
      "type": "function"
    },
    {
      "inputs": [],
      "name": "priceInWei",
      "outputs": [
        {
          "internalType": "uint256",
          "name": "",
          "type": "uint256"
        }
      ],
      "stateMutability": "view",
      "type": "function"
    },
    {
      "inputs": [],
      "name": "pricePaid",
      "outputs": [
        {
          "internalType": "uint256",
          "name": "",
          "type": "uint256"
        }
      ],
      "stateMutability": "view",
      "type": "function"
    },
    {
      "stateMutability": "payable",
      "type": "receive"
    }
  ],
  "bytecode": "0x608060405234801561001057600080fd5b506040516104ad3803806104ad8339818101604052606081101561003357600080fd5b81019080805190602001909291908051906020019092919080519060200190929190505050816000819055508060028190555082600360006101000a81548173ffffffffffffffffffffffffffffffffffffffff021916908373ffffffffffffffffffffffffffffffffffffffff1602179055505050506103f4806100b96000396000f3fe6080604052600436106100385760003560e01c80632986c0e51461032b5780633c8da5881461035657806389794d00146103815761031c565b3661031c5760005434146100b4576040517f08c379a00000000000000000000000000000000000000000000000000000000081526004018080602001828103825260208152602001807f207061727469616c205061796d656e74206973206e6f7420416c6c6f7765642181525060200191505060405180910390fd5b60006001541461012c576040517f08c379a00000000000000000000000000000000000000000000000000000000081526004018080602001828103825260158152602001807f4974656d20697320616c7265616479207061696421000000000000000000000081525060200191505060405180910390fd5b346001600082825401925050819055506000600360009054906101000a900473ffffffffffffffffffffffffffffffffffffffff1673ffffffffffffffffffffffffffffffffffffffff1634600254604051602401808281526020019150506040516020818303038152906040527f800fb83f000000000000000000000000000000000000000000000000000000007bffffffffffffffffffffffffffffffffffffffffffffffffffffffff19166020820180517bffffffffffffffffffffffffffffffffffffffffffffffffffffffff83818316178352505050506040518082805190602001908083835b6020831061023b5780518252602082019150602081019050602083039250610218565b6001836020036101000a03801982511681845116808217855250505050505090500191505060006040518083038185875af1925050503d806000811461029d576040519150601f19603f3d011682016040523d82523d6000602084013e6102a2565b606091505b5050905080610319576040517f08c379a00000000000000000000000000000000000000000000000000000000081526004018080602001828103825260168152602001807f2044656c697665727920646964206e6f7420776f726b0000000000000000000081525060200191505060405180910390fd5b50005b34801561032857600080fd5b50005b34801561033757600080fd5b506103406103ac565b6040518082815260200191505060405180910390f35b34801561036257600080fd5b5061036b6103b2565b6040518082815260200191505060405180910390f35b34801561038d57600080fd5b506103966103b8565b6040518082815260200191505060405180910390f35b60025481565b60005481565b6001548156fea2646970667358221220b8cd00811ebaefa888479267bf3f0325f03d782f83eea63ef48bf9c8ce8a8a3664736f6c634300060c0033",
  "source": "// SPDX-License-Identifier: MIT\r\npragma solidity ^0.6.0;\r\nimport \"./ItemManager.sol\";\r\n\r\n// This item contract work is to recieve the payment and hand it back to the Item Manager\r\ncontract Item{\r\n    \r\n    uint public priceInWei;\r\n    uint public pricePaid;\r\n    uint public index;\r\n    \r\n    ItemManager parentContract;\r\n    \r\n    constructor(ItemManager _parentContract, uint _priceInWei , uint _index) public {\r\n        priceInWei = _priceInWei;\r\n        index = _index;\r\n        parentContract = _parentContract;\r\n    }\r\n    \r\n    receive() external payable{\r\n        \r\n        require(msg.value == priceInWei ,\" partial Payment is not Allowed!\");\r\n        require(pricePaid == 0 , \"Item is already paid!\");\r\n        pricePaid += msg.value;\r\n        (bool success, ) = address(parentContract).call{value:msg.value}(abi.encodeWithSignature(\"triggerPayment(uint256)\", index)); // it's a low level\r\n                                                                                                                            // function call ..to send more gases..for further execution\r\n        require(success , \" Delivery did not work\");\r\n        \r\n    }\r\n    \r\n    fallback() external{\r\n        \r\n    }\r\n}\r\n\r\n",
  "sourcePath": "D:\\DOWNLOADS\\WorkSpace\\Truffle\\contracts\\Item.sol",
  "compiler": {
    "name": "solc",
    "version": "0.6.12+commit.27d51765.Emscripten.clang"
  },
  "schemaVersion": "3.0.20",
  "updatedAt": "2021-07-20T08:15:08.776Z",
  "devdoc": {
    "kind": "dev",
    "methods": {},
    "version": 1
  },
  "userdoc": {
    "kind": "user",
    "methods": {},
    "version": 1
  }
}