{
  "contractName": "Ownable",
  "abi": [
    {
      "inputs": [],
      "stateMutability": "nonpayable",
      "type": "constructor"
    },
    {
      "inputs": [],
      "name": "isOwner",
      "outputs": [
        {
          "internalType": "bool",
          "name": "",
          "type": "bool"
        }
      ],
      "stateMutability": "view",
      "type": "function"
    }
  ],
  "bytecode": "0x6080604052348015600f57600080fd5b50336000806101000a81548173ffffffffffffffffffffffffffffffffffffffff021916908373ffffffffffffffffffffffffffffffffffffffff16021790555060d88061005e6000396000f3fe6080604052348015600f57600080fd5b506004361060285760003560e01c80638f32d59b14602d575b600080fd5b6033604b565b60405180821515815260200191505060405180910390f35b60008060009054906101000a900473ffffffffffffffffffffffffffffffffffffffff1673ffffffffffffffffffffffffffffffffffffffff163373ffffffffffffffffffffffffffffffffffffffff161490509056fea2646970667358221220a60906f240b5f5a9984bb08a39d5d1689321ee1c2f931c5dafb6d10e53d49c8b64736f6c634300060c0033",
  "source": "//SPDX-License-Identifier: MIT\r\npragma solidity ^0.6.0;\r\n\r\ncontract Ownable{\r\n    address payable _owner;\r\n    \r\n    constructor() public {\r\n        _owner = msg.sender;\r\n    }\r\n    \r\n    modifier onlyOwner(){\r\n        require(isOwner(), \"You are not the owner\");\r\n        _;\r\n    }\r\n    \r\n    function isOwner() public view returns(bool){\r\n        return (msg.sender == _owner);\r\n    }\r\n}",
  "sourcePath": "D:\\DOWNLOADS\\WorkSpace\\Truffle\\contracts\\Ownable.sol",
  "compiler": {
    "name": "solc",
    "version": "0.6.12+commit.27d51765.Emscripten.clang"
  },
  "schemaVersion": "3.0.20",
  "updatedAt": "2021-07-20T08:15:08.789Z",
  "devdoc": {
    "kind": "dev",
    "methods": {},
    "version": 1
  },
  "userdoc": {
    "kind": "user",
    "methods": {},
    "version": 1
  }
}